{
  "abi": [
    {
      "inputs": [
        {
          "internalType": "uint256",
          "name": "a",
          "type": "uint256"
        },
        {
          "internalType": "uint256",
          "name": "b",
          "type": "uint256"
        },
        {
          "internalType": "uint256",
          "name": "denominator",
          "type": "uint256"
        }
      ],
      "name": "mulDiv",
      "outputs": [
        {
          "internalType": "uint256",
          "name": "result",
          "type": "uint256"
        }
      ],
      "stateMutability": "pure",
      "type": "function"
    }
  ],
  "bytecode": {
    "object": "0x61017561003a600b82828239805160001a60731461002d57634e487b7160e01b600052600060045260246000fd5b30600052607381538281f3fe73000000000000000000000000000000000000000030146080604052600436106100355760003560e01c8063aa9a09121461003a575b600080fd5b61004d610048366004610113565b61005f565b60405190815260200160405180910390f35b600080806000198587098587029250828110838203039150508060001415610099576000841161008e57600080fd5b50829004905061010c565b8084116100a557600080fd5b6000848688096000868103871696879004966002600389028118808a02820302808a02820302808a02820302808a02820302808a02820302808a02909103029181900381900460010186841190950394909402919094039290920491909117919091029150505b9392505050565b60008060006060848603121561012857600080fd5b50508135936020830135935060409092013591905056fea264697066735822122041e91a83e71f1dd63d555af7c4b9873eb67410742a9e904aa71f99f38c638e9664736f6c634300080a0033",
    "linkReferences": {}
  }
}