{
  "abi": [
    {
      "inputs": [
        {
          "internalType": "uint256",
          "name": "x",
          "type": "uint256"
        },
        {
          "internalType": "uint256",
          "name": "y",
          "type": "uint256"
        },
        {
          "internalType": "uint256",
          "name": "denominator",
          "type": "uint256"
        }
      ],
      "name": "mulDiv",
      "outputs": [
        {
          "internalType": "uint256",
          "name": "z",
          "type": "uint256"
        }
      ],
      "stateMutability": "pure",
      "type": "function"
    }
  ],
  "bytecode": {
    "object": "0x61015361003a600b82828239805160001a60731461002d57634e487b7160e01b600052600060045260246000fd5b30600052607381538281f3fe73000000000000000000000000000000000000000030146080604052600436106100355760003560e01c8063aa9a09121461003a575b600080fd5b61004d6100483660046100f1565b61005f565b60405190815260200160405180910390f35b600060001983850983850280821081830303915081610085576040518482048152602081f35b81841161009157600080fd5b83846000031680850494508486880982811190930360016000839003839004010292909103040160026003840281188085028203028085028203028085028203028085028203028085028203029384029003909202919091029392505050565b60008060006060848603121561010657600080fd5b50508135936020830135935060409092013591905056fea26469706673582212206225ed3372ae654a3cd7c8e52c737fb331e0057f2d5ff547536631bb174162df64736f6c634300080a0033",
    "linkReferences": {}
  }
}